:020000040800F2
:10000000080C00207D01000859370008493200081B
:1000100000000000000000000000000000000000E0
:10002000000000000000000000000000493A000845
:10003000000000000000000075370008CD3A0008FD
:100040008F0100088F0100088F0100088F01000850
:100050008F0100088F0100088F0100088F01000840
:10006000000000008F0100088F0100088F010008C8
:100070008F0100088F0100088F010008313B000844
:100080008F0100088F0100088F0100088F01000810
:10009000000000008F0100088F0100088F01000898
:1000A0008F0100088F0100088F0100088F010008F0
:1000B0008F0100088F010008000000000000000010
:1000C00000F002F800F04BF80CA030C808382418F3
:1000D0002D18A246671EAB4654465D46AC4201D180
:1000E00000F03DF87E460F3E0FCCB6460126334267
:1000F00000D0FB1AA246AB4633431847B44C00006D
:10010000D44C0000103A02D378C878C1FAD852070C
:1001100001D330C830C101D504680C6070470000BD
:100120000023002400250026103A01D378C1FBD813
:10013000520700D330C100D50B60704710B5642959
:1001400002D100F073F810BD752902D100F06EF8ED
:1001500010BD002010BD1FB51FBD10B510BD01F0B2
:10016000F1F81146FFF7F7FF03F0FCFF01F009F982
:1001700003B4FFF7F2FF03BC01F03AF907488047E8
:1001800007480047FEE7FEE7FEE7FEE7FEE7FEE77B
:1001900004480549054A064B704700002F3B0008FC
:1001A000C100000808060020080C002008080020F4
:1001B000080800200FB41CB5074B06AA7B4469460B
:1001C0000090059800F0F1FF0020694601F000F86A
:1001D0001CBC08BC04B018471110000070B50446E0
:1001E00085690068C10601D5302600E02026C007D9
:1001F00007D070BD62683046A1689047206A401CF5
:1002000020626D1EF6D570BD70B504468569007814
:10021000C00707D170BD6268A16820209047206A9E
:10022000401C20626D1EF6D570BD0000F7B500259C
:1002300075291068009914A611D0C046C046002840
:1002400002DA404211A608E0009909688A0701D540
:100250000FA602E0490704D50EA6012501E0C0461D
:10026000C046009F0024243704E000F0B6FF303180
:100270003955641C0028F8D12B4632462146009897
:1002800000F035FFFEBD0000000000002D00000062
:100290002B00000020000000F3B50446002081B0D0
:1002A00020622046E1688847002872D0252802D0C5
:1002B0006268A168ABE0594F00267F442046E168A0
:1002C00088472028054608DB312D06D278192038CA
:1002D0000078002801D00643F0E7B00701D50420DC
:1002E00086430020E0610746A0612A2D0AD02846F7
:1002F00003F031FF002827D0B8000019303D0090EE
:10030000856119E00298BA00121902C89161029041
:100310002046E1688847012F054617D1E06900288B
:100320001FDA202086431CE000980A218069484398
:1003300000994019303888612046E16888470546B1
:1003400003F009FF0028EFD1012F0AD02E2D08D18C
:100350002046E16888470546202006437F1C022F7F
:10036000C3DBA069002803DA4042A06101200643F4
:10037000F00701D0102086436C2D0BD0682D09D0DA
:100380004C2D3CD06A2D38D0742D38D07A2D36D0F3
:1003900016E040E0E1682F4620468847B84205460F
:1003A00009D16C2F29D001208002E1680643204644
:1003B0008847054604E06C2F1DD0FF20013006431E
:1003C000002D28D028464138192803D80120C00222
:1003D00006432035204626602946029A1646FFF736
:1003E000ADFE002810D001280BD0F61DF008C0008B
:1003F0000830029055E74020E1E78020D5E7002053
:10040000D3E7361D02964CE762682846A1689047FC
:10041000206A401C44E7206AFEBD0000DE48000060
:1004200001E004C0091F0429FBD28B0701D502801B
:10043000801CC90700D00270704700290BD0C30789
:1004400002D00270401C491E022904D3830702D542
:100450000280801C891EE3E70022EEE70022DFE72E
:10046000002203098B422CD3030A8B4211D30023B1
:100470009C464EE003460B433CD4002243088B428B
:1004800031D303098B421CD3030A8B4201D3944618
:100490003FE0C3098B4201D3CB01C01A524183090B
:1004A0008B4201D38B01C01A524143098B4201D3C5
:1004B0004B01C01A524103098B4201D30B01C01AF0
:1004C0005241C3088B4201D3CB00C01A524183086A
:1004D0008B4201D38B00C01A524143088B4201D397
:1004E0004B00C01A5241411A00D2014652411046F7
:1004F00070475DE0CA0F00D04942031000D340426C
:10050000534000229C4603098B422DD3030A8B42A1
:1005100012D3FC22890112BA030A8B420CD389013F
:1005200092118B4208D3890192118B4204D3890125
:100530003AD0921100E08909C3098B4201D3CB0163
:10054000C01A524183098B4201D38B01C01A524118
:1005500043098B4201D34B01C01A524103098B421C
:1005600001D30B01C01A5241C3088B4201D3CB0007
:10057000C01A524183088B4201D38B00C01A5241EA
:10058000D9D243088B4201D34B00C01A5241411AC1
:1005900000D20146634652415B10104601D34042EF
:1005A000002B00D54942704763465B1000D34042A0
:1005B00001B50020C046C04602BD70477047704775
:1005C0000246C80FC00781434B0030B54B405B006B
:1005D0009B0D20D01923DB06C91801231B05994266
:1005E00020DB0324A40704251346AB400BD3002BC8
:1005F00004D1EB0613409B00E34204D401246407BA
:10060000002312195941FF231B0599420BD2C9003F
:100610000143500F09E0CB0204D501430803024314
:1006200005D0054830BDFF21C905084330BD084647
:1006300007210905884330BD0000C07FF0B50C4696
:10064000871A9C410D46861A9D4103D2C01BA141C9
:10065000D21963410D0D1F0DC94EEC1BAE435CD08A
:100660007F057F0D0026002F51D02D05AC46A943F4
:10067000DD020123ED0A1B051D4320231B1B24D48F
:100680001746E740381871412F46E740CC199D4086
:100690002818314661410C0D27D161449A4013D589
:1006A0000023401C594152000ED140084000012255
:1006B0004B005205D34207D305204007C14201D564
:1006C000B04900E0B0493046F0BD6B00002A00D0D0
:1006D00001229A181F23203C1B1B01D5002302E096
:1006E000E540281871410C0DD7D0012424050919C3
:1006F000C407CD0740084908E40F28436144002C93
:10070000D5D00024401C61419A40D0D1CDE76A0584
:10071000520DD9D1C90FC907D5E79C4D4E0000280D
:1007200001D0012400E0002434195F00002A01D028
:10073000012600E00026BE19954FAC420CD8AE420F
:100740000AD8B44206D001256D05EC42BCD0104653
:100750001946F0BD9942FCD000203946F0BDF0B5F5
:100760001FB40C460F46811A9F412546861A9D41AB
:1007700006D20125ED076F40401ABC4152187B415B
:10078000210D1E0D8D1BAC467D4D8D437ED0750514
:100790006D0D7CD00D05AE46AC431B031B0B794D94
:1007A00052429D41202366469B1B14D31746F740B7
:1007B000381800260090744160462F460741E4191E
:1007C00000989D402818664116D4714671189A40C9
:1007D00025D5012320E093182A466A415200002BB8
:1007E00000D0521C1E23203E9B1B002B61DD354197
:1007F000EE1728186641E8D5001876415B1C9A4030
:1008000000D3401C4B05F3181524E34010D3002BF4
:1008100052D071467118D30FC01802D3491C05B0CD
:10082000F0BD0123DB079A42F9D140084000F6E70A
:1008300001225205B21801D1002853D00123CC0A5D
:10084000DB029943891E002A08D1020C03D0020C56
:100850000004103902E00246002020390023550B25
:1008600005D112020823550B01D152010D23550C5D
:1008700001D112011B1DD50C01D192009B1C150D3D
:1008800001D152005B1C2025EE1A01E02CE022E091
:100890000546F54015439840CA1AE1076918130543
:1008A000C918002ABBDA032040070818C10FC9077E
:1008B0000FE071466118B2E7F10740080843711074
:1008C00071444A000CD001235B059A42A7D2C90F9C
:1008D000C9070020A3E74905490D26D1002001E002
:1008E0000028F4D100219AE7284D6600002801D0A5
:1008F000012100E0002171185F00002A01D00126CB
:1009000000E00026BE19224FA94210D8AE420ED8F0
:10091000B14208D001256D05E94206D01946A8026A
:10092000414010467BE79C4201D0214677E70020FA
:10093000394674E710B50C465C4005D50124E40740
:100940006340FFF70CFF10BDFFF778FE10BD30B419
:100950000C465C4004D50124E407634030BC6DE6DE
:1009600030BCFCE670B50124E40761400D465D40F3
:1009700002D4FFF763FE70BD6340FFF7F0FE70BD69
:10098000FF0700000000F0FF0000F07F0000E0FF24
:100990000000F87FF0B5F94D0C091E092C402E40DF
:1009A0002F468BB0A7437DD0B543FCD0002E7AD024
:1009B000002CFCD00D465D40ED0F2543AC1BFF2500
:1009C000AD0464190894C502440DC9022143500DB9
:1009D000DC0204430120C00701430443D202019119
:1009E000200C110C00958C46010423468B430A9180
:1009F00061460904E24D8A430991010A7D4449197F
:100A00008039097805464D4301266D18F605751B9A
:100A10006943C90C640B891C4C436418B5012C1B39
:100A2000250C2E04B4434C434D43210C691889090D
:100A30000591009DE90701D00121C90704912C46C9
:100A400001996708CD072F434C08059DE10B4D43E5
:100A50002D0C29466646754302950D4645432E46A4
:100A6000029D7D1BB44100950D465D4301942C0C05
:100A70002F040D465543AE462D0C3D43029503947D
:100A80007546049C2D04641B049406D2029C039DAD
:100A9000641C002675410395029401AC70CC009F44
:100AA0007D1B01E03EE162E1B4410904009507913C
:100AB00001940599A4086143090C0C464443650B55
:100AC000E7040C4666467443A646640B3C43039514
:100AD00002947446049DE4042C1B049406D2029CE8
:100AE000039D641C002675410395029401AC70CCF3
:100AF000009F7D1BB44101940C465C430095650F3B
:100B0000E7000C465443A646640F3C430395029409
:100B10007446049DE4002C1B049406D2029C039DA1
:100B2000641C002675410395029401AC70CC009FB3
:100B30007D1BB441AE09AF06049DC900AD092F432A
:100B4000049DA406AD060495079D344369180791DA
:100B5000059DE10B4D432D0C2946664675430295D4
:100B60000D4645432E46029D7D1BB44100950D4622
:100B70005D4301942C0C2F040D465543AE462D0CBD
:100B80003D43029503947546049C2D04641B049414
:100B900006D2029C039D641C0026754103950294B5
:100BA00001AC70CC009F7D1BB44101948C05069470
:100BB000079C890A611800950791019C0599A40872
:100BC0006143090C0D464543680BEF040D4664462E
:100BD00065436C0B3C43049FED047D1BAC4602D285
:100BE0000025641C6841009E019D371B8541084615
:100BF000584301950C46460FC5005443600F2843E7
:100C00006546E4002C1B02D20025401C6E41019D6C
:100C10003F1AB5412846BD09800628438446A009ED
:100C2000BF064E020699A40676180743079D0020CA
:100C300068410A99079019430020099B009060467B
:100C4000FF1913434041E20F64003A43A4460446AF
:100C5000D71A8C41A04203D90120009020463A4681
:100C6000C70F941840416246D20F22436446640085
:100C70000494009CBE466400D71AA446044602971A
:100C80008C417746002F01D1A04204D96046401C18
:100C90008446029A2046C40FA64694184041049AFE
:100CA0000546D20F224364466400D31A8D41714633
:100CB000002901D1A84202D928461A46641C1043D3
:100CC0000122002800D0164361020020079B8919E9
:100CD00004465C410223002C02DB491813466441A0
:100CE000089DCE0A2D145D194B056705E10A2C05F8
:100CF0000D1908993E43C9076940002B08D093405D
:100D000006D30022761C5141002B01D176087600D3
:100D10001C4A002D43DB154241D0AA433FD0304648
:100D20000BB0F0BD06180D464D41174C7642AC4154
:100D30001AD395181C465C41134A6D42A24113D345
:100D4000012252054C00D4420AD15C00D4420BD09F
:100D50004B4002D592021143E2E749004908DFE720
:100D60005940C90FC90718E000200849D8E70548CD
:100D700001420DD10342F7D0F2E700000000FF0767
:100D8000AD4100000000F07F0000E0FF0000F87FB0
:100D9000114859400143C01241400020C0E70123DF
:100DA000089A9B069A4205DC032252078918C90F4C
:100DB000C907B5E7052252078918074A1143D2121D
:100DC0005140ADE770B515461C4602460B46284615
:100DD0002146FFF7DFFD70BDFFFFFF7F1F22030CE1
:100DE00002D10F22000402D0030E03D004E0002041
:100DF000014670470002083A030F01D10001121F9B
:100E0000830F01D18000921E002801DB4000521E9A
:100E1000120551184205C012411810467047C10F03
:100E2000C90700D04042012292071143D6E70121B1
:100E30008907D3E70121C9050123411842001B0698
:100E4000D3185B0E0AD0C1100722D20689184007BA
:100E50005242D14201D5520089187047090208D583
:100E60000146002A03D0C10FC90700207047104671
:100E70007047420202D0002002497047072109054D
:100E80000143F4E70000F87FF0B5FF252D04C60903
:100E9000C209FF2704462E400137CB093E43484094
:100EA0002A402B400746002A6BD0002B69D0AA426B
:100EB00067D0AB4265D0002800DA32460125ED0547
:100EC00029432C4309022002090AD21A4B0C7F2421
:100ED000E31A434C000A7C44E35C7D242404121989
:100EE00014145B00A218884201D3521C00E0400099
:100EF00049420C465C4324115C43DB016415E31852
:100F0000040A5C43C502200D0C4644436419250ABB
:100F10005D432303EC0C0D46654300030019EB18F9
:100F20004C42A34201D35B18401CD4052018002B6F
:100F300007D05B00C91804D3401C002901D1400828
:100F400040003F2189048A4209D3002A08DC1106A7
:100F5000090F04D0032149074018C00FC007F0BD96
:100F600001224100120689187F2252069142F6D2D0
:100F700005214907C84201D59010F0BDFF20C005EA
:100F8000F0BD002F00DA32461648AA4207D2AB4223
:100F900005D21902090E17D0F80FC007F0BDFF25C2
:100FA00063002D06AB42F9D84900A942F6D8AB42FE
:100FB00001D1A942F2D0A94201D1002101E0610092
:100FC0004908D0050843F0BD1102090EFBD0FF20EF
:100FD0000243D005F0BD0A460146104654E7000022
:100FE000533D00000000C07F10B501469E24000262
:100FF000CA15A307002A02D01843002A04DBA21A4C
:10100000002A0CDDD04010BD1206120E01D14000A6
:101010004008A21A03D4D04040420028F3DDFF224A
:1010200048001206904201D9002010BDC817C043E5
:10103000584010BD1F22030C02D10F2200041CD007
:10104000030E01D10002083A030F01D10001121F63
:10105000830F01D18000921E002801DB4000521E48
:10106000D2055118021251181922904004D3491C7C
:10107000002801D14908490008467047C10FC90737
:1010800000D04042012292071143D3E70121890792
:10109000D0E7000010B5FF22C30D134009D05A401D
:1010A00007D0914205DA5C42A14202DDC905081869
:1010B00010BDC40FE407002B06D0002A06D000297B
:1010C00002DBFF20C0050443204610BD4102FCD0D6
:1010D000004810BD0000C07F10B500F00BF900689B
:1010E00010BD10B5044600F005F9046010BDFFB551
:1010F00004460D4681B0243000902168880604D54E
:101100001022E0699143216000E00120A84201DD46
:10111000471B00E000270498A1697A191018081AE3
:10112000A0612078C00602D42046FFF757F80026B9
:1011300008E003986268A168805D9047206A401CBF
:10114000761C206204988642F3DB2078C0060AD51C
:101150002046FFF743F806E06268A1683020904718
:10116000206A401C206238467F1E0028F4DC07E01D
:1011700000986268A168405D9047206A401C206228
:1011800028466D1E0028F3DC2046FFF73DF8207846
:10119000000602D5022005B0F0BD0120FBE70000EB
:1011A00001694A1C02610878704700B58FB002914E
:1011B000002105910549019379440391114604905A
:1011C0006846FFF769F80FB000BD0000E5FFFFFFBC
:1011D0000A681070521C0A60704701468008081A9D
:1011E00002091018020A1018020C1018C008820018
:1011F00012185200891A01E0401C0A390A29FBD250
:101200007047000010B5FF231B0644009C421DD808
:101210004C009C421AD80346124A0B4307D4401A8A
:1012200002D3EFF3008010BDEFF3008010BD081A69
:1012300006D2EFF3008001219043C907084302E082
:10124000EFF30080904380F3008810BD0D231B0452
:101250001A4204D01146002000F050F810BD00F0F2
:1012600065F810BD0000009070B502460102012330
:10127000C01520249E26DD07002802D0294300281F
:1012800013DB361A002E29DD0846F040A21B01D4DC
:10129000914000E04908002906D0994000D3401C45
:1012A000002901D14008400070BD0006000E01D1A8
:1012B00049004908361A11D40846F0404042002837
:1012C0000CDCA21B01D4914000E049080029EBD0BE
:1012D000CA0F490000D11843801A70BDFF21500089
:1012E0000906884201D9002070BDD017C04368406C
:1012F00070BD000000487047A8050020C80212D544
:101300004803400F002804D0C803C043012188408F
:101310007047EFF30080000100090321090708432B
:1013200080F30088704700207047000010B5024825
:1013300000F02FF810BD00000000C07F004870478B
:10134000A80500207546FFF7F9FFAE46050069467F
:101350005346C008C000854618B020B5FEF718FFF8
:1013600060BC00274908B6460026C0C5C0C5C0C538
:10137000C0C5C0C5C0C5C0C5C0C5403D49008D463B
:10138000704710B50446C046C0462046FEF7F0FE42
:1013900010BD10B50C461107090F092904D00A2900
:1013A0000AD008290CD104E011460820FFF7A6FF57
:1013B00006E0510606D501E0510601D50120C0071F
:1013C000214610BDD10607D501010909CC084907FE
:1013D000000E0006044309E0410F20024907000AFD
:1013E0000143200E00061D22D14101430846E7E7D4
:1013F00001491820ABBEFEE726000200704700003E
:1014000004488178002903D00021817001207047B1
:10141000002070471400002010B5052008210007A7
:1014200000F052FC044600F063FC014609480278D3
:10143000944202D00470416010BD42789442FBD0C7
:101440004268891A1E29F7D34470002CF4D1012177
:10145000817010BD1400002030B585B00C460546E3
:1014600000206946087330212846FEF7F7FF2C60FC
:10147000092369460B74204604A9642401230091C2
:101480000C2202940193EC2100F08AFD00280AD17D
:10149000282000F0BDFA012303AA0D21284602F0FE
:1014A00084F9002800D0002005B030BD012210B51D
:1014B000D205914201DA002010BDFFF7E5FC054995
:1014C00002F06CFE7F21C90503F042FA024903F0E5
:1014D000BBF910BDAEDC423E002A2D47F7B50446ED
:1014E0002030007B84B0002871D06A46032120465A
:1014F00002F041F900286AD001AA0021204602F03A
:101500003AF9002863D00098FFF7B8FD1221C943CB
:10151000FFF7C0FD0546A062A068FFF7AFFD2946B2
:1015200003F092F906466068FFF7A8FD314603F024
:1015300045F902900198FFF7A1FD2649FFF7A4FCA9
:101540000646206AFFF79AFD314603F07DF907460B
:10155000A069FFF793FD394603F030F9314603F0F7
:1015600073F907466069FFF789FD394603F026F9EC
:10157000294603F069F90746606AFFF77FFD3146A7
:1015800003F062F90546E069FFF778FD294603F0AC
:1015900015F9314603F058F905462069FFF76EFD4D
:1015A000294603F00BF9314603F04EF90546E06891
:1015B000FFF764FD294603F001F9394603F0FEF810
:1015C0000146059A0298106006980160012007B054
:1015D000F0BD00000000F04AFFB533498BB0002099
:1015E000C4000C5D944202D1C000401803E0401CCE
:1015F0001F28F5D32C48002101900198401840780D
:10160000049000201022049CC240224000D00122FD
:101610009446002438E0002232E00B9E05465D43EC
:10162000B618AD192FB20C9E0D465D433619AD1993
:101630002DB2AE46802F21D27546002D1EDB402DE7
:101640001CDAEE17760F7644F510ED01ED19ADB208
:101650000395F6087546F600AD1B6646002E134E40
:10166000039FEDB2F65D03D00127AF403E4302E099
:101670000127AF40BE430D4D039FEE55521CD2B221
:101680009A42CAD3641CE4B29C42C4D3401CC0B288
:101690000528B7D3491CC9B20729AED30620434356
:1016A000D8B20FB0F0BD0000384A00085C0100203D
:1016B00002480221017000210161704720000020D2
:1016C00010B5054C0320207000F012FBA061A0684B
:1016D00020620020206110BD20000020024805216A
:1016E00001700021016170472000002072B6FEE702
:1016F00003494A6901231B04184302434A617047A6
:1017000000200240044A5069044BC90018400143BC
:1017100003480143516170470020024007E0FFFF8A
:101720000200010030B505494C6901252C434C618C
:101730000260BFF36F8F436030BD000000200240A5
:1017400030B50B4C002362690125AD042A43626168
:10175000EFF3108272B620C95B1C20C0DBB2402BB5
:10176000F9D32069C003FCD482F3108830BD000097
:1017700000200240F8B5044600F0BAFA01270646F8
:101780003F04124D06E0601C04D000F0B1FA801B4B
:10179000A04213D228693842F5D128690C49084083
:1017A0000C4929610CD00C4948600120F8BD601C2F
:1017B00006D000F09DFA801BA04201D30320F8BDA3
:1017C00028694003F3D40020F8BD00000020024047
:1017D000FAC30000FBC300008C05002010B502F026
:1017E00035F9104C104960701048FFF735FE10486D
:1017F00002F0ECF802F0CCF802230EA2182100202F
:1018000002F0D0F802F00CF90020A060E060206146
:10181000A0702063606300F06BFA606101202070AB
:1018200010BD000020000020680000205C050020A2
:10183000BC00002046354A20414C54007CB55B4C2E
:101840002078030002F028FC07460531477A7D9C8A
:10185000AD0002F079FB00F04BFA05466069281AEA
:10186000322837D36A4601A95148FFF737FE0028CE
:101870000BD00098FFF7DEFA636B226BFFF75AF884
:1018800061632063A078401CA0706561A07808287F
:1018900020D3FFF7CCFA02460B46616B206BFFF7B3
:1018A00079F8FEF78DFE606073E002F0C9FB01F08D
:1018B00054FFFFF7A5FD002806D06078401C800784
:1018C000800F607002F0D6F83A4801F0CBFF63E079
:1018D000FFF7F6FE7CBD02F0B3FB00F009FAA16948
:1018E000461A02F05DFB0121484005463248864217
:1018F00001D3012600E000266078002809D02F4996
:1019000080000958A06802F0F7FF01D8012000E02C
:101910000020354305430BD00420207002F014FB57
:1019200000F0E6F9E061A0682062FFF7D7FE7CBD19
:1019300001F013FF224801F095FF7CBD02F004FB8B
:10194000F3E702F07DFB02F0FFFA216AA06802F0E3
:10195000D3FF01D2A06820621A4801F083FF00F093
:10196000C7F9E169184A401A9042E6D3206A6062DA
:10197000A069081AA06206202070002020617CBDAA
:1019800002F0E2FA114801F06DFFFFF739FD00287F
:1019900002D0FFF78DFE7CBD02F002FB002897D13C
:1019A0007CBD02F0D1FA022020707CBD2000002016
:1019B0005C050020CD370008D87200004C4B0008B1
:1019C000F5380008FF380008102700000939000822
:1019D00010B50A4601A1FEF7EDFB10BD256C6400B1
:1019E00010B50A4604467D21C9001046FEF738FDB1
:1019F0003C21FEF735FD02460B4602A12046FEF7CC
:101A0000D9FB10BD2530326C753A2530326C75002B
:101A100070B5044600F06CF90546601C02D004481D
:101A20000078241800F064F9401BA042FAD370BD7E
:101A300058000020F8B51F4E044630780F460128A4
:101A40000AD001203070002070607D20C000FFF7B8
:101A500091FE002802D029E00220F8BD0421616037
:101A60002268042A03D0491F3960A56814E008469B
:101A7000FFF73EFE7D20C000FFF77CFE16E0294602
:101A80006068FFF73FFE7D20C000FFF773FE00286F
:101A900001D03D6005E06D1CE268A1688918A9428B
:101AA000EDD805494A6902239A434A610021317001
:101AB000F8BD00008C0500200020024010B57D20FC
:101AC0000124C000FFF756FE054841698204114316
:101AD00041614069002800DA0024204610BD000062
:101AE00000200240F0B51FB4144C0646207815467D
:101AF00001280AD00120207000277D20C0006760E7
:101B0000FFF738FE002803D010E0022005B0F0BD3A
:101B1000012E0DD029460198FFF712FE7D20C0004E
:101B2000FFF728FE06494A69B2434A612770EDE78C
:101B30002A46039B0198FFF7F5FDEFE78C0500208F
:101B400000200240064900204A69002A07DA054AB7
:101B50008A60054A8A604969002900DA01207047D5
:101B60000020024023016745AB89EFCDF0B500238B
:101B700003249AE02A4601259D402A407ED00E7912
:101B8000B607B60F012E01D0022E16D18668274661
:101B9000B4465E00B646B7406646BE43B446CF681C
:101BA0007646B7406646374387604668AE430D7950
:101BB000ED06ED0F9D40354345600D79ED43AD07D2
:101BC00008D0C5685F002646BE40B5438E68BE405B
:101BD0002E43C6600D79AD07AD0F022D0ED1DD0885
:101BE000AD002D18AC462D6A5E07F60E0F27B740E4
:101BF000BD430F69B7402F4365462F6205685F00FC
:101C00002646BE40B5430E79B607B60FBE402E43FA
:101C100006604D68AD03AD0F46D09E08264DB60058
:101C20007519AC462D6E9E07F60E0F27B740BD43C3
:101C300005273F07B84201D100270FE01F4FB842E8
:101C400001D101270AE01E4FB84201D1022705E069
:101C50001C4FB84201D1032700E00527B7402F43AE
:101C6000154D664637662D684E689543F60200D5D9
:101C70001543114F3D607D68954300E014E04E68C8
:101C8000B60200D515437D600B4D80356E684F68F8
:101C90009643BF0300D516436E602E684F68964387
:101CA000FF0300D516432E605B1C0A681546DA4018
:101CB00000D05FE7F0BD00000018024000040050B3
:101CC00000080050000C00500069084000D00120BE
:101CD0007047426913460B401B0491430B438361D9
:101CE0007047002A01D0816170478162704700000F
:101CF00001488068704700005800002070B5024617
:101D000040325378202B1CD11378012B19D001239A
:101D1000137024245470046825689D43256004686A
:101D200025681E03B5432560046825680D432560BA
:101D30000068016819430160202050700020107075
:101D400070BD022070BD70B5024640325378202B22
:101D50001BD11378012B18D0012414702423537045
:101D600003681D68A5431D6005682B680F263602B1
:101D7000B3430902194329600068016821430160E7
:101D8000202050700020107070BD022070BD000037
:101D900070B5040006D02546403568780026002836
:101DA00002D005E0012070BD2E70204600F09EF9A3
:101DB00024206870206801684908490001600F21EB
:101DC0006068090688432168086121688A680120E3
:101DD000C00382438A60E1680129A1682FD02122D3
:101DE00092021143226891600121E268C902022A2D
:101DF0002268536825D08B43536021684A68124B90
:101E00001A434A602168CA688243CA6061692069CE
:101E10000843A169090208432168C860216AE06992
:101E200008432168086020680168012211430160AD
:101E30006664202068702663AE70002070BD014388
:101E4000D0E70B43D8E7000000800002FFB505464D
:101E500004464035687883B0202875D10C98002856
:101E600014D00D98002811D0287801286CD00120BA
:101E70002870FFF73DFF0746012200901923D10388
:101E8000204601F0F1FA002874D103E0012040025D
:101E900060646FE0222068704020A87000266664AD
:101EA0000C9860620D98608566630E9800900197AB
:101EB00004A90EC9204601F061FA002801D02E7055
:101EC00058E0618D3448FF2905D9FF22228501237E
:101ED0001B06009006E0618D21850090208D012376
:101EE000C2B25B062046049901F0A8FA00970022CE
:101EF000042120460E9B01F0B7FA00283AD1206851
:101F0000406A616A0870606A401C6062208D401EF1
:101F100081B22185608D401E6085608D00281FD0B4
:101F200000291DD100970022802120460E9B01F040
:101F30009BFA00281ED1608DFF2806D9FF2222853A
:101F400001231B06009607E024E0608D20850096A3
:101F5000208D0123C2B25B062046049901F06EFA7F
:101F6000608D0028C2D13A4620460E9901F0B5FA9C
:101F7000002802D0012007B0F0BD20682021C161F7
:101F800020684268054B1A4042606970AE702E703E
:101F90000020F0E70220EEE70024008000E800FEC9
:101FA000FFB5054604464035687883B0202872D1D5
:101FB0000C98002814D00D98002811D028780128FA
:101FC00069D001202870FFF793FE07460122009098
:101FD0001923D103204601F047FA002871D103E00C
:101FE0000120400260646CE0212068704020A870ED
:101FF000002666640C9860620D98608566630E9892
:102000000090019704A90EC9204601F0E7F90028C5
:1020100001D02E7055E0608DFF2805D9FF22228562
:1020200001231B06009606E0608D20850096208D1A
:102030000123C2B25B062046049901F0FFF93A463B
:1020400020460E9901F074FA00283AD1606A21689E
:1020500000788862606A401C6062608D401E608506
:10206000208D401E80B22085618D00291FD0002860
:102070001DD100970022802120460E9B01F0F4F92B
:1020800000281ED1608DFF2806D9FF22228501235A
:102090001B06009607E024E0608D20850096208DC9
:1020A0000123C2B25B062046049901F0C7F9608D96
:1020B0000028C4D13A4620460E9901F00EFA0028B5
:1020C00002D0012007B0F0BD20682021C161206846
:1020D0004268054B1A4042606970AE702E70002055
:1020E000F0E70220EEE7000000E800FEF0B591B056
:1020F000044614216846FEF7B1F9282105A8FEF729
:10210000ADF923492068234C122606270025884272
:102110001ED120200590089505A800F0CDF80028D4
:1021200001D0FFF7E3FA616B022001436163616B49
:10213000029501400F91C0200090049701960395ED
:1021400069461548FFF712FDE16B0120400518E0D4
:10215000124988421AD1606B012108436063606BA9
:10216000029508400F900320C002009005206946A8
:102170000497019603950007FFF7F8FCE16B012037
:1021800080050143E163E16B01400F9111B0F0BDA7
:10219000005400400010024000040050005800406D
:1021A00002488168027889188160704758000020D1
:1021B00010B508480024016882151143016003200E
:1021C00000F00AF8002801D0012401E000F028F80E
:1021D000204610BD0020024070B50F4E002431781B
:1021E0000546002915D07D20C000FEF739F90146CB
:1021F0000A480068FEF734F900F01CFC002808D1FA
:10220000042D06D200222946401E00F02BF87560EE
:1022100000E00124204670BD58000020640000202A
:1022200008B50948016801221143016000681040A7
:10223000009005484038C26B01040A43C263C06B7A
:102240000840009008BD000040100240002805DB57
:10225000C106C90E0120884001490860704700008E
:1022600000E100E010B501F035FF10BD10B50F4CD6
:10227000216803225202914301432160C11FFF39AB
:10228000FA390ED10A480621006848430949FEF789
:10229000E7F8401C02E0002805D0401E61694905AE
:1022A000F9D4002010BD032010BD000000700040D4
:1022B0006400002040420F00F8B504460068002684
:1022C000664D800358D5654800274038C06BC00074
:1022D00009D462484038C26B01040A43C263C06B30
:1022E0000840012700905E48016882151143016093
:1022F000FFF7FEFC009005E0FFF7FAFC0099401A9A
:10230000022825D856480068C005F5D5E86903219C
:10231000090208400FD0616A81420CD0E8690321AC
:102320000902EA698843012109040A43EA61EA696A
:102330008A43EA61E861C0070FD0FFF7D9FC00903B
:1023400008E0FFF7D5FC0099411A4648814201D9BF
:10235000032609E0E8698007F3D5E869032109024B
:102360008843616A0843E861002F05D03B48403844
:10237000C26B01048A43C2632078C00705D0686934
:10238000616880088000084368612078C00606D52F
:102390006869032189028843A1680843686120882D
:1023A000800506D56869032189048843616908436B
:1023B00068612088400506D56869032109058843BE
:1023C000A169084368612078800606D56869032101
:1023D00009038843E168084368612088400411D5F7
:1023E0006869E16980008008084368610121E0694B
:1023F0008907884206D119484038C1680122120471
:102400001143C1602068800210D5686901218905E7
:10241000226A884310436861206A884206D10F48C7
:102420004038C168012212061143C16020880005AE
:1024300012D56869032189038843216908436861CB
:10244000012120698903884206D104484038C168C7
:10245000012212041143C1603046F8BD4010024011
:102460000070004088130000F8B50F46060043D006
:102470004D4D28684007400FB84213D22868C00865
:10248000C00038432860FFF733FC044605E0FFF73F
:102490002FFC011B4548814261D828684007400F46
:1024A000B842F4D13068424C81070DD5400704D5BD
:1024B000A068072109030843A060A0680F21090252
:1024C0008843B1680843A0603078C00732D0706894
:1024D00001280AD002280BD000280FD034494031FF
:1024E00003280ED0C969890704E02168890301E047
:1024F00021688901002906DB0120F8BD2168490512
:10250000F8E7096AEFE7A168C908C9000143A160BB
:10251000FFF7EEFB009006E0FFF7EAFB0099411A97
:10252000224881421BD8A068382108407168C90040
:102530008842F1D128684007400FB84217D91A489D
:102540000168C908C90039430160FFF7D1FB05469E
:1025500007E0FFF7CDFB411B1448814201D903205E
:10256000F8BD114800684007400FB842F1D13078FB
:10257000400706D5A068072109038843F16808438E
:10258000A06000F01DF8A1683C2289091140094AA9
:10259000515CC906C90EC840074908600748006871
:1025A000FFF71AFEF8BD000000200240881300006B
:1025B000001002405C4B0008640000205C0000201A
:1025C00010B5204CA068204A8006400F16D0A068A5
:1025D0008006410F501001290FD0A1688906490FCC
:1025E000022912D0A0688006400F042823D0A068DA
:1025F0008006400F032821D0002010BD2068012153
:102600008004400F8140104612E0E1688B07E168CA
:102610009B0F4906490F491C032B00D01046FDF7BC
:102620001FFFE1684904490E4843E168490F491C0E
:10263000FDF716FF10BD0120C00310BD7D20000274
:1026400010BD0000001002400024F400F8B50400A2
:102650007ED020783827C007ED4D002846D0A868E6
:10266000E96838408907890F102802D008280BD064
:1026700001E0032908D001206268000482420AD1E7
:1026800029680143296015E0286880032ED5606819
:102690000028DDD02AE0052301211B0489049A4289
:1026A0002A6802D10A432A60EAE782432A6028683E
:1026B00088432860606800280CD0FFF719FB0646A5
:1026C00004E0FFF715FB801B642873D8286880039B
:1026D000F7D50BE0FFF70CFB064604E0FFF708FB1D
:1026E000801B6428F1D828688003F7D420788007FD
:1026F00069D5A868E96838408A070721920FC9029E
:10270000102802D0002813D001E0022A10D0E0687F
:10271000002846D028688843216908432860286833
:10272000FF21013108432860FFF7E2FA06462CE05A
:102730002A68520502D5E268002A89D06A687F2398
:102740001B029A4363691B021A436A60002800E077
:102750008DE00ED1286888432169084328602868E5
:1027600001218004400F8140AA48FDF779FEAA4963
:102770000860AA480068FFF72FFD002877D122E003
:10278000FFF7B6FA801B02289FD828684005F7D5C6
:1027900068687F210902884361690902084368600B
:1027A00011E02968FF20013081432960FFF7A0FA7A
:1027B000064605E098E0FFF79BFA801B022884D8C4
:1027C00028684005F7D42078954E00072ED5A868D4
:1027D0008006400F03280AD0A0690028306A16D06E
:1027E000012108433062FFF783FA07460BE0306AA5
:1027F00080071BD5A06900289FD017E0FFF778FA63
:10280000C01B022870D8306A8007F7D50EE0400858
:1028100040003062FFF76CFA074604E0FFF768FA01
:10282000C01B022860D8306A8007F7D420784007A0
:102830006CD5A86800278006400F042818D0E86BE4
:10284000C00008D4E96B012000070143E963E96B8C
:1028500001400127009173480168C90519D4016836
:10286000821511430160FFF743FA00900DE083E009
:10287000F06980074AD5A06800287DD046E0FFF7C0
:1028800037FA0099401A02282ED866480068C00519
:10289000F5D5A168012910D004200529F16911D0CE
:1028A00049084900F161F1698143F161A06800289C
:1028B00016D0FFF71DFA00900EE0F06901210843E1
:1028C000F061F3E70143F161F7E7FFF711FA0099CF
:1028D000411A5548814267D8F0698007F5D50EE066
:1028E000FFF706FA009007E05EE0FFF701FA0099B3
:1028F000411A4D48814257D8F0698007F5D4002F1E
:1029000004D0E86B012109078843E863E0690028E7
:102910007BD0A9688906490F02294FD001263606C7
:102920000228286805D0B0432860FFF7E1F9044683
:102930003CE0B0432860FFF7DBF9074604E0FFF70F
:10294000D7F9C01B02282FD828688001F7D4616A04
:10295000206AA26A0843E16A120211430843216B0C
:102960000843616B0843E968304A11400843E86056
:1029700028683043286000E045E0E8680121090745
:102980000843E860FFF7B4F9044604E0FFF7B0F944
:10299000001B022808D828688001F7D535E0FFF72A
:1029A000A7F9001B022801D90320F8BD286880017F
:1029B000F5D4E8681E490840E86026E00128F4D014
:1029C000E868226A8107890F91421CD17021626AEE
:1029D0000140914217D17F21A26A090201401202EF
:1029E000914210D11F214904E26A014091420AD16B
:1029F00007214906226B0140914204D1400F616BCF
:102A00004007884201D00120F8BD0020F8BD000039
:102A1000001002400024F400640000205C0000204C
:102A20004010024000700040881300008C80C111EB
:102A3000FCFFFEEE094910B5401E884201D9012075
:102A400010BD074C60610321081F01F043FB00200B
:102A5000A06107202061002010BD0000FFFFFF00E3
:102A600000E000E07047704770470000F0B5034693
:102A700020331A7F012A28D001221A7702225A779E
:102A800004686268A568124FBC4205D116460F2241
:102A9000120596434A6832437026B2430E681643C5
:102AA00066600068B84206D001229207904202D0C8
:102AB000084A904204D18022896895432943816065
:102AC0000120587700201877F0BD0220F0BD0000EB
:102AD000002C01400004004070B5012201689207FB
:102AE000914215D1017F012912D1002100F095FBFF
:102AF0000546052001210007FFF7E6F80126164CE0
:102B0000012803D02078012803D021E0A560267099
:102B100070BDA068854201D3281A02E00F49081A47
:102B200040190F49884213D885B2E12080000D4931
:102B3000281A88420CD2A580FFF7DAF8E0606670A8
:102B4000A078002804D107486538854200D2A670D5
:102B50000020207070BD000000000020204E00000A
:102B6000FFFF0000B1040000F8B50446002026462F
:102B700020360090307F0D4601280ED0012030779E
:102B8000002A0CD0042A19D0082A2AD00C2A58D09E
:102B90000090002030770098F8BD0220F8BDEB6867
:102BA00006CD083D206801F075F9206882690C2186
:102BB0008A43826120688169AA680FE0EB6806CDCC
:102BC000083D206801F09CF9206881690322920287
:102BD0009143816120688169AA6812021143816171
:102BE000D7E7296820688E46E9686A688C46016ADA
:102BF000036AFF270137BB4303622A4B984203D184
:102C0000036A0715BB430362C3690A279B089B003D
:102C10001343F022934362461207120E1A43052310
:102C20005B02994373463B401B020B43C261036244
:102C30002068C1690C229143C1612068C169AA68FA
:102C40002CE02B6820689E46297B6B68026A8C46C4
:102C5000016A01273F03B9430162C16903273F02AB
:102C6000B9431B020B430F2109038B43614609073C
:102C7000090C194305235B039A4373460A273B401B
:102C80001B031343C16103622068C26903218902E7
:102C90008A43C2612068C169AA6812021143C161F6
:102CA00077E70000002C014070B5040005D02546F0
:102CB0002035687F002802D006E0012070BD00208A
:102CC0002877204600F016F802206877211D20683A
:102CD00000F036FF012240342272AA77EA77227090
:102CE0006270A270E27022716271A271E2716A7701
:102CF000002070BD10B586B0044614216846FDF76B
:102D0000ADFB012120688907884221D11148C26B9F
:102D100001210A43C263C26B0A400592426B0A4317
:102D20004263406B00910840059000200221029010
:102D3000039001910491052069460007FEF716FFF4
:102D4000002211460F20FFF78DFA0F20FFF77EFAC1
:102D500006B010BD0010024070B5024604460026C1
:102D600020324034054600290CD004290DD0082912
:102D70000ED00C290FD010290FD0E078E37901286C
:102D80000FD10CE0907F2379F9E7D07F6379F6E7E4
:102D90002078A379F3E76078F0E7A078EEE7012BDD
:102DA00001D0012070BD022000290DD0042912D0CD
:102DB000082916D00C2937D0102937D0E070E071DF
:102DC0000C2935D001262DE0907720712A68D36830
:102DD0000343D3600CE0D07760712868C268042395
:102DE00004E02070A0712868C26808231A43C260FA
:102DF0000122286800F0ECFE0F4928680122884271
:102E000005D09107884202D00C49884207D18168D9
:102E10000B4B1940062905D0DB1F994202D00168EF
:102E200011430160304670BD6070C8E7A070C6E70E
:102E30002868C2681023D9E7002C01400004004034
:102E400007000100F8B504460068C6680569002758
:102E5000A907002913DAB10711D5F91E0161012074
:102E60002077206880698007204602D0FFF734FE73
:102E700004E000F0AFF8204600F068F92777680713
:102E800016D5700714D504202168C04308610220BC
:102E90002077206880698005800F204602D0FFF7E8
:102EA0001BFE04E000F096F8204600F04FF927776B
:102EB000280715D5300713D508202168C0430861BD
:102EC000042020772068C0698007204602D0FFF7E1
:102ED00003FE04E000F07EF8204600F037F9277783
:102EE000E80616D5F00614D510202168C043086105
:102EF000082020772068C0698005800F204602D016
:102F0000FFF7EAFD04E000F065F8204600F01EF946
:102F10002777E80708D0F00706D001202168C043D2
:102F20000861204600F078F9280601D4A80407D5E6
:102F3000300605D52168134808612046FFF793FD48
:102F4000E80507D5300605D521680F4808612046F9
:102F5000FFF788FD680608D5700606D54020216871
:102F6000C0430861204600F06EF9A80608D5B006F7
:102F700006D520202168C04308612046FFF774FD74
:102F8000F8BD00007FDFFFFFFFFEFFFF10B586B03A
:102F9000044614216846FDF761FA0121206889077B
:102FA000884213D10A48416B012211434163406BAF
:102FB00002210091104005900020029003900191A1
:102FC0000491052069460007FEF7D0FD06B010BD4C
:102FD000001002407047F8B504460020264620360F
:102FE0000090307F0D4601280CD001200827307753
:102FF0000C2A48D008DC002A10D0042A1ED0082A47
:1030000006D130E00220F8BD102A52D0142A60D038
:1030100001200090002030770098F8BD206800F073
:10302000E5FD206881693943816120688169042256
:1030300091438161206881692A6911E0206800F06C
:1030400015FE206881690122D20211438161206846
:103050008169521091438161206881692A69120255
:1030600011438161D6E7206800F040FE2068C16905
:103070003943C1612068C16904229143C16120685C
:10308000C1692A6912E0206800F070FE2068C169F9
:103090000122D2021143C1612068C2690121890263
:1030A0008A43C2612068C1692A6912021143C16161
:1030B000B0E7206800F08EFE2068416D394341651D
:1030C0002068426D04218A4342652068416D2A6967
:1030D00012E0206800F0ACFE2068416D0122D202AF
:1030E000114341652068426D012189028A4342658E
:1030F0002068416D2A691202114341658AE770B563
:10310000040005D025462035687F002802D006E05F
:10311000012070BD00202877204600F016F802201C
:103120006877211D206800F00BFD012240342272D7
:10313000AA77EA7722706270A270E27022716271DF
:10314000A271E2716A77002070BD7047704700007D
:1031500010B504460223203000290ED0042911D0D6
:1031600020464030082912D00C2915D0102918D03B
:10317000C278012A1AD0012010BD827F012AFAD11B
:10318000837714E0C27F012AF5D1C3770FE002787C
:10319000012AF0D103700AE04278012AEBD1437092
:1031A00005E08278012AE6D1837000E0C370012235
:1031B000206800F00DFD13492068884205D0124AAE
:1031C000904202D0114A904204D1426C0123DB03A9
:1031D0001A43426420680122884205D09107884240
:1031E00002D00B49884207D181680A4B1940062951
:1031F00005D0DB1F994202D0016811430160002015
:1032000010BD0000002C0140004401400048014076
:10321000000400400700010070470246002000291A
:1032200008D0042909D008290AD00C2901D1106836
:10323000006C70471068406B70471068806B704777
:103240001068C06B70477047FEE701688A69D24317
:10325000920701D400228A6200688169C943C907C4
:1032600003D081690122114381617047F7B504469B
:10327000006882B0816900262746C9064037354676
:103280000092002945DA1021C16132E00398401C08
:103290002FD0FEF72DFD0099411A0398814201D8E5
:1032A000002826D120684168012292031140BA7893
:1032B0008369DB431B0417D401239B03994213D07A
:1032C000202A11D0416819434160FEF711FD00909A
:1032D0000AE0FEF70DFD01460098081A192803D9E7
:1032E00020200543012604E020688069C043800651
:1032F000EFD420688069C043800602D5002EC5D077
:1033000004E0002E02D121682020C861042005437A
:10331000012621688869C20504D5012215431202DD
:10332000CA610126410508D508210D43CA0121685B
:10333000CA610126800502D40AE0800506D5022074
:10334000054321680002C861012601E0002E0FD06C
:103350002046FFF77AFF20684168074A1140416024
:10336000606C28436064202078700020B87038704A
:10337000304605B0F0BD000000E800FEF8B5044698
:10338000164615481D46DAB20090079F00232046D6
:1033900000F054F83A462046069900F0C9F8002893
:1033A00018D12846F5B2012809D02168300A886270
:1033B0003A462046069900F0BBF800280AD120685A
:1033C00085620097002240212046069B00F04CF8C1
:1033D000002800D00120F8BD00200080F8B5044688
:1033E000164615481D46DAB2C3020090079F2046D4
:1033F00000F024F83A462046069900F099F8002893
:1034000018D12846F5B2012809D02168300A88620F
:103410003A462046069900F08BF800280AD1206829
:1034200085620097002280212046069B00F01CF850
:10343000002800D00120F8BD00200080890510B5CB
:10344000890D12041143029C19430268214349006B
:1034500050684908630D034C234398430843506068
:1034600010BD0000FF63FF03F8B51D4617460E466A
:10347000044626E029462046069AFFF7F7FE002874
:1034800001D00120F8BD681C1BD0FEF731FC069965
:10349000401AA84201D8002D13D120688169304616
:1034A00088430CD00020B8420BD1616C202001432E
:1034B0006164403460700020A0702070E1E701205A
:1034C000F1E7206881693046884304D00020B84283
:1034D000D0D00020F8BD0120F9E770B516460D46A2
:1034E00004461EE0324629462046FFF7BFFE00286C
:1034F00001D0012070BDFEF7FBFB801BA84201D864
:10350000002D0ED120688069C043800609D5616C0A
:10351000202001436164403460700020A07020705E
:10352000E7E720688069C0438006DBD4002070BDD7
:1035300070B516460D46044620E032462946204620
:10354000FFF794FE002801D0012070BD681C15D043
:10355000FEF7CEFB801BA84201D8002D0ED12068BB
:103560008069C043800709D5616C202001436164F4
:10357000403460700020A0702070E5E7206880690A
:10358000C0438007D9D4002070BD0000F0B587B0DB
:1035900014216846FCF762FF1448416B0126314351
:1035A0004163416B31400591416B022529434163E1
:1035B000406B0F4F28400590002229463846FEF701
:1035C00090FB082000240090052001946946029495
:1035D0000007FEF7CBFA029469463846019600953B
:1035E0000394FEF7C3FA07B0F0BD000000100240DC
:1035F0000004005010B513481149016012494160A0
:10360000002181600161416181610122C161C2606B
:103610000162FEF7BDFB002801D072B6FEE7002173
:103620000848FEF76BFB002801D072B6FEE70021C8
:103630000448FEF788FB002801D072B6FEE710BDF3
:1036400000540040680000205B3D300010B5134876
:1036500011490160124941600021816001614161AD
:1036600081610122C161C2600162FEF791FB002805
:1036700001D072B6FEE700210848FEF73FFB0028A4
:1036800001D072B6FEE700210448FEF75CFB00287B
:1036900001D072B6FEE710BD00580040BC0000200B
:1036A0005B3D300010B58EB000240C940D940B944B
:1036B0000794089409941C2168460A94FCF7CEFEEE
:1036C00001212348890701600F218460416021495D
:1036D0000461C16080218161FFF7E6FA002801D012
:1036E00072B6FEE71A48FFF70AFD002801D072B64D
:1036F000FEE70B940BA916480D94FFF7B7F90028C5
:1037000001D072B6FEE70A2007900120089004203D
:103710000A900994002207A90D48FFF725FA00280E
:1037200001D072B6FEE76020009064200190029400
:103730000422694604940648FFF74DFC002801D096
:1037400072B6FEE70248FFF721FC0EB010BD000084
:1037500010010020204E0000FEE710B500F034FC00
:10376000002804D000F0FCFB00F04AFC10BD00F083
:10377000EBFB10BD70471CB5144603236A4600F0EE
:1037800014F8002810D06946087849780004090226
:1037900008436946897808430190182101A800F080
:1037A00043FC0198206001201CBD3EB564246D4699
:1037B0001CC50A4600680123EC21FEF747FB0028E0
:1037C00001D000203EBD01203EBD00001FB500F02D
:1037D000DFF8002102231AA2084600F0E3F8194C92
:1037E000A06800F0C5F801466846FEF7F1F802232C
:1037F0006A461421002000F0D5F8012312A22821E6
:10380000002000F0CFF86078012812D0022812D0F2
:10381000032812D00DA201232821182000F0C2F89D
:1038200001230BA23421002000F0BCF800F0F8F8CE
:103830001FBD09A2EFE709A2EDE709A2EBE700002F
:10384000414C54002000002043555400554E4C007C
:1038500052454144590000003130300031353000CC
:103860003230300010B50446FEF742FA03490A69C7
:10387000821A962A01D30861A04710BD20000020BB
:103880007FB5054600F084F80021022315A2084602
:1038900000F088F8144CA06800F06AF80146684609
:1038A000FEF796F802236A461421002000F07AF809
:1038B000002D01D00DA200E00DA201232C2100203B
:1038C00000F070F8FEF714FAA169411A6846FEF795
:1038D00087F801236A462C211C2000F063F800F0D1
:1038E0009FF87FBD414C540020000020524543000A
:1038F00052554E0010B50020FFF7C2FF10BD10B5A5
:103900000120FFF7BDFF10BD1FB500F041F80021F9
:10391000012312A2084600F045F8124C606A00F03C
:1039200027F801466846FEF753F802236A460C2141
:10393000002000F037F801230BA22821002000F01E
:1039400031F86846A16AFEF74BF801236A46342134
:10395000002000F027F800F063F81FBD53544152D7
:10396000540000002000002054494D450000000094
:10397000FF223F2110B5D2050906D04202D200F045
:103980001DFF01E000F0F0FFFDF72EFB10BD000071
:1039900010B5012189020248FCF75EFD10BD000050
:1039A0005C010020F8B51E0015460F4600D1012627
:1039B000044607E0334639462046FDF70DFE001960
:1039C000C4B26D1C2A78002AF4D1F8BDF0B5124DAE
:1039D00085B028603220FEF71BF800240F4F012627
:1039E000385D6946087303A964200091019602902E
:1039F0000123002278212868FEF7D2FA002802D09D
:103A0000002005B0F0BD641C192CE9D3FFF7C0FFFE
:103A100000F006F80120F4E710000020304B000809
:103A20000EB501210648642289020090029201919C
:103A300004480123402278210068FEF7B1FA0EBD48
:103A40005C01002010000020704700000749084A70
:103A50000868904207D108794979C943C9B28842B8
:103A600001D1042800D300207047000000F80008AE
:103A7000DEC0E5A100B587B0124900916946087122
:103A8000C04348710020C043C88000200690FEF764
:103A900059F802200290042003901F200490012076
:103AA000059006A902A8FDF7C5FF002805D1064923
:103AB0000120019B009AFEF715F8FDF7FFFF07B004
:103AC00000BD0000DEC0E5A100F8000810B5FEF75B
:103AD00067FB10BD10B592B038216846FCF7BEFCFC
:103AE000002401200E940F94109440021194FEF7CC
:103AF000BDFB02200090C00103904020059004947B
:103B000007946846FEF7A2FD002801D072B6FEE7D2
:103B100007200E900F941094002111940EA8FEF728
:103B2000A3FC002801D072B6FEE712B010BD7047AA
:103B300010B50248FFF786F910BD00001001002003
:103B4000F0B502681D4B0124A4071D4D984203D017
:103B5000A04201D0A84203D17026B2434E6832433E
:103B6000184E194F98420AD0A04208D0A84206D059
:103B7000164CA04203D0B04201D0B84204D1032475
:103B80002402A243CC6822438024A2434C692243EE
:103B90008C68C4620C688462984203D0B04201D041
:103BA000B84201D109690163016804231943016026
:103BB00001214161BFF34F8F0260F0BD002C014035
:103BC0000004004000440140004801400020004043
:103BD00010B5CB06DB0E0121046A99408C430462C8
:103BE000016A9A401143016210BD0000F0B5056AF8
:103BF000026A52085200026243688269174C2240EE
:103C000092080C6892001443022295438A682A4362
:103C1000134DA84205D0134EB04202D0124EB0420E
:103C200007D1066A0427BE4306620826B243CE685F
:103C30003243A84205D00B4DA84202D00A4DA842FB
:103C400006D103252D02AB434D691D438B692B43E0
:103C500043608461496841630262F0BD8FFFFEFFEB
:103C6000002C0140004401400048014070B5046A46
:103C7000026A10239A43026242688369174D2B40FF
:103C800003252D02AB430D682D021D4320239C43C9
:103C90008B681B012343124CA04209D1046A4026C1
:103CA000B44304628024A343CC682401234305E089
:103CB0000C4CA04202D00C4CA04208D10324A40218
:103CC000A2434C69A40014438A69920022434260D3
:103CD000856149688163036270BD0000FF8FFFFE4C
:103CE000002C0140004401400048014070B5056AC5
:103CF000026AFF2301339A4302624268C369174C88
:103D000023409B080C689B001C4301235B029D43DE
:103D10008B681B022B43124DA84209D1056A061578
:103D2000B5430562C514AB43CD682D022B4305E0B6
:103D30000C4DA84202D00C4DA84208D103252D03FA
:103D4000AA434D692D0115438A6912012A43426035
:103D5000C4614968C163036270BD00008FFFFEFF4C
:103D6000002C0140004401400048014030B5046A85
:103D7000026A01231B039A4302624368C269114D20
:103D80002A4003252D02AA430D682D021543012266
:103D9000520394438A68120322430B4CA04205D07D
:103DA0000A4CA04202D00A4CA04205D10124A4032F
:103DB000A3434C69A40123434360C561496801647E
:103DC000026230BDFF8FFFFE002C01400044014025
:103DD0000048014070B5036A026A01263604B24306
:103DE00002624268456D0E4C25400C682C437500FC
:103DF000AB430D892D041D430A4B984205D00A4B55
:103E0000984202D0094B984203D14B69B2431B023E
:103E10001A434260446549688165056270BD0000CF
:103E20008FFFFEFF002C014000440140004801408C
:103E300070B5046A026A01231B059A430262426854
:103E4000436D104D2B400D682D021D4301235B0572
:103E50009C430B891E050C4B2643984205D00B4B07
:103E6000984202D00A4B984206D101241346A4047A
:103E70004A69A34392021A43426045654968C16595
:103E8000066270BDFF8FFFFE002C01400044014020
:103E900000480140F0B5056A046A640864000462E1
:103EA000134EB04205D0134CA04202D0124CA04297
:103EB00003D1046A0427BC4304628469B04206D07B
:103EC0000126B607B04202D00C4EB04202D1A4087F
:103ED000A40000E001221443F02294431A07120EBA
:103EE0000A2322439D431940294382610162F0BDA8
:103EF000002C014000440140004801400004004003
:103F000070B5046A056A1026B54305620D4DA842D6
:103F100003D1056A4026B54305628569032636024A
:103F2000B54312022A430F252D031B071B0CAA437E
:103F30001343A0220901944311402143836101628C
:103F400070BD0000002C01407D200349C000C880E6
:103F500002490968886370470000002010010020B2
:103F600001488088704700000000002070B50A48B2
:103F70007D250068ED008563084C0421E580064836
:103F8000FFF7E6F8002020706070A070A580014661
:103F90000148FEF7E1FE70BD100100200000002086
:103FA00007484178002908D08178002905D0808809
:103FB0000449884201D30120704700207047000067
:103FC000000000204C0400000148407870470000C9
:103FD0000000002010B5FDF78BFE08494A78002A42
:103FE00003D0CA68801A642807D94878002802D00C
:103FF000002048708870FFF7A7FF10BD0000002068
:10400000E1218900054A411A914201D37D20C00077
:104010000349C8800349096888637047B1040000F8
:10402000000000201001002030B501224C1E154672
:104030000368A5402B4202D08A40991A016030BD26
:104040001CB5FDF755FE094CE168411A14290CD343
:10405000E0606A4601A90648FDF740FA002804D04E
:1040600061680098FDF722FAA0601CBD20000020C6
:104070005C05002010B5002202210248FDF731FE48
:1040800010BD00000004005010B502210148FDF7EA
:1040900020FE10BD0004005030B47446641E257824
:1040A000641CAB4200D21D46635D5B00E31830BC6C
:1040B00018474100080200D004200A0E01D0012256
:1040C0001043090EFF2901D102210843012800D124
:1040D000052070478307FF22DB0E9A408907090EEF
:1040E0009940002808DB830809489B001B181868C2
:1040F00090430843186070470007000F0838830892
:1041000004489B001B18D86990430843D861704746
:1041100000E400E000ED00E010B57F200021C005C4
:10412000FCF7B2FE10BD10B500F048FB10BD10B595
:1041300000210846FCF7A8FE10BD10B5072061213C
:104140000007FCF7A7FF10BD5E2110B5C9430807A3
:10415000FCF7A0FF10BD30380A2801D201207047BB
:1041600000207047FEF724F8FFF7B4FCFFF70EFAC3
:10417000FFF740FAFFF76AFAFFF794FAFFF77AFFC2
:10418000FFF7F4FEFDF72AFBFFF724FFFDF744F9E4
:10419000FDF754FBFFF778FFF6E70000F0B50D469A
:1041A00084468BB00020029001216046C9057F261D
:1041B000431A0122F60569005206770089182C4639
:1041C000BB427DD2520191427AD3F8490122411873
:1041D0005203914275D951014118C90C0C070905C8
:1041E0000A0E1146F24BD205D218801A009002989E
:1041F0007F390818240F06902046FCF73FFF032163
:10420000C943FCF747FF7F21C90500F0D7FA0146F3
:104210000190009800F0A8FB02900199009800F02E
:10422000CDFA0127FF020890C019000B00030146D8
:104230000390019800F098FB009900F0BFFA0490F9
:104240007F20C0050899FCF71FFE014601900298E7
:1042500000F0FAFAC019000B00030090049900F076
:10426000F3FA04900399009800F0EEFA029900F036
:104270006FFB049900F078FB019900F0E5FA014624
:104280000290009800F09AFA0146049000F0DCFADF
:10429000C849019000F0D8FAC74900F08FFA019997
:1042A00000F0D2FA039000210098FCF7F3FE019091
:1042B0000399049800F0C8FA00900021029801E0E8
:1042C00028E12AE2FCF7E6FE009900F077FA0146C1
:1042D0000090019800F072FAC019000B000301462B
:1042E0000390019800F040FB009900F067FA0090FD
:1042F000B249039800F0A8FA0290B149009800F082
:10430000A3FA0090AF49039800F09EFA009900F0DC
:1043100055FA01460090029800F050FAC019000BBF
:10432000000301460190029800F01EFB009900F086
:1043300045FAA5490890E00079440A5840180992C6
:10434000446806980001FCF799FE049021460898FD
:1043500000F034FA019900F031FA099900F02EFAD0
:10436000049900F02BFAC019070B3F033846049953
:1043700000F0FAFA099900F0F7FA019900F0F4FA5E
:10438000214600F0F1FA089900F0E2FA0446012013
:10439000C0022818000B000301460390284600F0D5
:1043A000E3FA0021029008460020C0460C21084094
:1043B00005903846039900F047FA410005468B20E6
:1043C0004908C00581420ADD4A00FF2109068A42E8
:1043D00005D8E90FC9070843044600201FE00299E9
:1043E000039800F0EBF9214600F02EFA0446384617
:1043F000029900F029FA214600F0E0F9074601464B
:10440000284600F0DBF90121C9024018040B2403FF
:104410002146284600F0A8FA394600F0CFF901906D
:104420000C2005990020C0462046019900F0C6F9ED
:10443000FCF71AFF07460511FCF720FE214600F0A5
:1044400087FA019900F0BAF90446604900F0FCF9D6
:104450005F4900F0B3F9214600F0F6F95D4900F03C
:10446000ADF9214600F0F0F901463807840E5A48AC
:104470007844005900F0E8F958497944095900F0A6
:104480009DF957497944095900F098F929467D3139
:10449000FC2907D22946FCF7FDFD314600F0D4F98E
:1044A0000BB0F0BD2946FF22BF318032914217D2B6
:1044B0002946FCF7EFFD314600F0C6F904464100FD
:1044C000FF200006814219D060000BD02046FFF784
:1044D000F0FD042801D1FFF737FE20460BB0F0BDF8
:1044E000002D0BDA0220FCF7FCFDFFF72DFE40004B
:1044F0004008F10FC90708430BB0F0BD0220FCF7DC
:10450000F0FDFFF71AFE40004008F10FC90708430D
:104510000BB0F0BD01229207914239D3FF21C905AA
:104520007F224118120691421AD2400061004008D1
:10453000090E7F2909DB972900DB46E69622521AED
:10454000012191404A1E224206D00120FCF7C9FDFC
:10455000FFF7EDFD0BB0F0BD2142EED0214E34E669
:10456000410004D0012241001206914207D30121EB
:10457000C9057F22411A12069142DED346E01B2173
:10458000FCF788FD1A21C94302910028CDDB1CE607
:1045900001225206914232D3690025D0EA0F3F2111
:1045A000D207C90554182546B8E70000001080C09E
:1045B000000080C07EE24C3EABAAAA3E00B038426A
:1045C0003BAA3842D49AB8BB34090000FC5963377F
:1045D000C9FF753A1872313DFC080000B2080000AE
:1045E00068080000000080BF410097D0FF21420012
:1045F00009068A4292D27F20C0050BB0F0BD01228D
:104600001206914202D25110651A87E742006449AE
:104610005208644E5318B34210D363005B08591814
:10462000B1420BD37F21C905884264D0660062D0B5
:10463000FF26F605B24201D8B34204D92946FFF756
:1046400072FD0BB0F0BDB04202D1002C49DB61E03D
:104650006200120E7F2A08DB972A0CDA96239B1A37
:1046600001229A40531E234201D0002204E022423C
:1046700001D0012200E002224B4B98420BD1002CCA
:1046800004DB012A46D118460BB0F0BD012A28D11F
:10469000D0070BB0F0BD00280ED00125ED07A842D1
:1046A00025D1B4421DD09C4208D0002C15DA002A36
:1046B00004D0012A09D001E0002C12DA0220FCF714
:1046C00010FDFFF729FD0BB0F0BD0220FCF709FD3E
:1046D000FFF722FD68400BB0F0BD002A01D0012A8F
:1046E00002D000200BB0F0BD28460BB0F0BD8122F7
:1046F000D205D04202D108460BB0F0BD7F21400068
:104700000906884201D3012100E00021E017401C86
:104710008142E6D130460BB0F0BD7F21C90500F0E3
:1047200023F901210446C943FCF7B4FC1F4900F0FA
:104730000FF9214600F088F83F21090600F008F93A
:1047400007462146084600F07FF80121C907484086
:10475000394600F079F807461549204600F074F80C
:1047600002901449384600F06FF807461249204677
:1047700000F06AF8394600F021F804460146029834
:1047800000F01CF80121C9024018070B3F0339460D
:10479000029800F0E9F8214600F010F8F6E5000074
:1047A000FFFF7F80FFFF3F00000080FFABAAAA3E13
:1047B00000B0B8413BAAB841D49A38BB70B50125C6
:1047C0000400ED074C4020D4441A01D2001B091903
:1047D000C60D4B00F2B2FF2A29D01B0E2CD00002CE
:1047E0000C02D31A2C43DC402843051910D2280AA6
:1047F00002D3401C6D0611D0761EF6058019FF2AE3
:1048000000DA70BDC00DC00570BD694000F0B2F89F
:1048100001200543C541521C761CE8E764089C4012
:10482000C90161408900E7D10124A043E4E71B0EE0
:10483000440200D0034870BD002AFCD1C00FC0075D
:1048400070BD00BF0000C07F70B5420064414B00E6
:104850005C41120E39D01B0E38D0FF2A3CD0FF2B02
:104860003AD040024902400A490A060045184E4320
:10487000000A090AD2184843ED017F3A0104731A6D
:104880004019190C4318990F04D001215B084907FE
:104890005B1A521CD80904D3401CF50301D19D06B4
:1048A00007D0FF2A08D2D50506D0E40720434019D7
:1048B00070BD0125A843F4E7002A01DCE00770BDC4
:1048C0002402FF202043C00570BD1B0EFF2A03D029
:1048D000FF2B01D0E00770BDFF2645003606B5422C
:1048E00006D84D00B54203D8D218FF2A00D0E7E71A
:1048F000004870BD0000C07F01230A00DB050243B1
:104900000DD4DA4203D49A4207D481427047D94287
:1049100014D4D84212D48142704789427047DA4297
:1049200003D59A42F9D5884270475B004A00DA42C3
:1049300004D24200DA4201D28842704748404140E6
:1049400010B5024A4840FCF75DFC10BD0900160492
:1049500070B50125ED07684004004C4002D5694060
:1049600000F008F8FFF730FF70B501250400ED07EF
:104970004C4022D4441A02D26C40001B0919C60DC7
:104980004B00F2B2FF2A4BD01B0E50D000020C029B
:10499000D31A2C43DC40A843051B05D5AD0019D321
:1049A0006D08761E521E37D0F605280A01D28019EE
:1049B00070BD70416D0603D070BD6940FFF704FF04
:1049C0009C4009026140490001D0401E70BD012495
:1049D000A04370BD6D081DD001202B0C01D12D040A
:1049E00010302B0E01D12D0208302B0F01D12D01DB
:1049F000001DAB0F01D1AD00801CEB0F01D16D008C
:104A0000401C6D00361A121A680AF5054019012A71
:104A100002DB70BD002070BDC036300AC00770BD1B
:104A20001B0E440201D1FF2B00D1024870BD002AA9
:104A3000F0D070BD0000C07F20000000000000002A
:104A4000300E11131519110E31040C040404040E58
:104A5000320E11010204081F331F02040201110E5D
:104A60003402060A121F0202351F101E0101110E28
:104A7000360608101E11110E371F0102040808081F
:104A8000380E11110E11110E390E11110F01020CF9
:104A90003A00040400040400410E11111F11111109
:104AA000430F10101010100F441E11111111111E80
:104AB000451F10101E10101F481111111F11111148
:104AC000490E04040404040E4C1010101010101FA2
:104AD0004D111B15151111114E1119151513111129
:104AE0004F0E11111111110E501E11111E10101028
:104AF000521E11111E141211530F10100E01011E1F
:104B0000541F040404040404551111111111110E51
:104B10005711111115151B115911110A0404040420
:104B20006D00001A151515152D0000001F0000005E
:104B3000AE2000C84081CFA1A6A83FA4D300D58055
:104B4000D9F1DA12DB408D14AF0000000000000044
:104B50000000C84200001643000048430000000067
:104B60000000000000000000000000000000000045
:104B70000000000000000000000000000100000034
:104B80000200000003000000040000000600000016
:104B900007000000080000000900000004000008F1
:104BA0000000000000000002000100001080807F73
:104BB0007E7D7C7B7A797877767675747372717185
:104BC000706F6E6E6D6C6C6B6A6A6968686766663A
:104BD000656464636362616160605F5F5E5E5D5DCA
:104BE0005C5C5B5B5A5A595958585757565655553D
:104BF000555454535352525251515050504F4F4F9D
:104C00004E4E4D4D4D4C4C4C4B4B4B4A4A4A4949EC
:104C1000494848484747474746464645454544442E
:104C2000444443434343424242424141418182839F
:104C30008485868788898B8C8D8E8F9192939596AB
:104C400097999A9C9D9FA0A2A3A5A7A8AAACAEB035
:104C5000B2B3B5B7B9BCBEC0C2C5C7C9CCCED1D43A
:104C6000D7D9DCDFE2E6E9ECF0F3F7FAFE0000006A
:104C700000000000000000000000B33FB2BE7D3A1B
:104C800000002E40DFCF513800007E40BF51FABAFD
:104C900000E0A44019DAC3BA00E0C840C2ED8AB906
:104CA0000040EB40CD1F2CBA001006412AFFFABA93
:104CB00000C01541DFCFD13700D024419A97703A18
:104CC0000050334189478E3600404141E75B9D38B3
:104CD00000B04E41C00A98B900A05B41558F943A8C
:104CE00000306841DA92C0BA0040744162B3C63AFB
:104CF0000000803F00A0853F00908B3F00C0913FA7
:104D00000030983F00F09E3F00F0A53F0050AD3FBF
:104D10000000B53F0000BD3F0060C53F0020CE3F12
:104D20000040D73F00C0E03F00C0EA3F0020F53F11
:104D3000000000007D36AC397D3C3839EBDCF438BE
:104D4000320A7E39124C26399B6AED39A4EE83393A
:104D50007F661E39F6398A392B426539A4821139AA
:104D60005B991F39C3EECD39DDE7C637A5A22F39D0
:104D70000000803FC3AA853FC2958B3FD3C3913FBC
:104D8000F037983F32F59E3FD7FEA53F3F58AD3FE5
:104D9000F304B53FA408BD3F2A67C53F8C24CE3F2E
:104DA000FD44D73FDFCCE03FC7C0EA3F7D25F53F5C
:104DB000D04D000800000020680000000401000839
:104DC000384E000868000020A00B000020010008F9
:104DD00000000000E803E8030000000000000000FD
:104DE00000000000010100000000000000000000C1
:104DF00000000000000000000000000000000000B3
:104E000000000000000000000000000000000000A2
:104E10000000000000000000000000000000000092
:104E2000000000000000000001000000040000007D
:084E3000000000000024F40062
:04000005080000C12E
:00000001FF
